{
  "_format": "hh-sol-artifact-1",
  "contractName": "TodoList",
  "sourceName": "contracts/TodoList.sol",
  "abi": [
    {
      "inputs": [],
      "stateMutability": "nonpayable",
      "type": "constructor"
    },
    {
      "anonymous": false,
      "inputs": [
        {
          "indexed": false,
          "internalType": "uint256",
          "name": "id",
          "type": "uint256"
        },
        {
          "indexed": false,
          "internalType": "string",
          "name": "content",
          "type": "string"
        }
      ],
      "name": "Created",
      "type": "event"
    },
    {
      "anonymous": false,
      "inputs": [
        {
          "indexed": false,
          "internalType": "uint256",
          "name": "id",
          "type": "uint256"
        },
        {
          "indexed": false,
          "internalType": "bool",
          "name": "completed",
          "type": "bool"
        }
      ],
      "name": "UpdateIsCompleted",
      "type": "event"
    },
    {
      "inputs": [
        {
          "internalType": "string",
          "name": "_content",
          "type": "string"
        }
      ],
      "name": "createTask",
      "outputs": [],
      "stateMutability": "nonpayable",
      "type": "function"
    },
    {
      "inputs": [],
      "name": "taskCount",
      "outputs": [
        {
          "internalType": "uint256",
          "name": "",
          "type": "uint256"
        }
      ],
      "stateMutability": "view",
      "type": "function"
    },
    {
      "inputs": [
        {
          "internalType": "uint256",
          "name": "",
          "type": "uint256"
        }
      ],
      "name": "tasks",
      "outputs": [
        {
          "internalType": "string",
          "name": "content",
          "type": "string"
        },
        {
          "internalType": "bool",
          "name": "isCompleted",
          "type": "bool"
        }
      ],
      "stateMutability": "view",
      "type": "function"
    },
    {
      "inputs": [
        {
          "internalType": "uint256",
          "name": "_id",
          "type": "uint256"
        }
      ],
      "name": "toggleIsCompleted",
      "outputs": [],
      "stateMutability": "nonpayable",
      "type": "function"
    }
  ],
  "bytecode": "0x6080604052600080553480156200001557600080fd5b506200005c6040518060400160405280600c81526020017f496e697469616c204461746100000000000000000000000000000000000000008152506200006260201b60201c565b620003ac565b60008081546200007290620002ef565b9190508190555060405180604001604052808281526020016000151581525060016000805481526020019081526020016000206000820151816000019080519060200190620000c392919062000127565b5060208201518160010160006101000a81548160ff0219169083151502179055509050507f8304eea71399999aba5c87c24c7fbc7cb6fce2f02b9b5983fda2636b86df8d0a600054826040516200011c92919062000229565b60405180910390a150565b8280546200013590620002b9565b90600052602060002090601f016020900481019282620001595760008555620001a5565b82601f106200017457805160ff1916838001178555620001a5565b82800160010185558215620001a5579182015b82811115620001a457825182559160200191906001019062000187565b5b509050620001b49190620001b8565b5090565b5b80821115620001d3576000816000905550600101620001b9565b5090565b6000620001e4826200025d565b620001f0818562000268565b93506200020281856020860162000283565b6200020d816200039b565b840191505092915050565b620002238162000279565b82525050565b600060408201905062000240600083018562000218565b8181036020830152620002548184620001d7565b90509392505050565b600081519050919050565b600082825260208201905092915050565b6000819050919050565b60005b83811015620002a357808201518184015260208101905062000286565b83811115620002b3576000848401525b50505050565b60006002820490506001821680620002d257607f821691505b60208210811415620002e957620002e86200036c565b5b50919050565b6000620002fc8262000279565b91507fffffffffffffffffffffffffffffffffffffffffffffffffffffffffffffffff8214156200033257620003316200033d565b5b600182019050919050565b7f4e487b7100000000000000000000000000000000000000000000000000000000600052601160045260246000fd5b7f4e487b7100000000000000000000000000000000000000000000000000000000600052602260045260246000fd5b6000601f19601f8301169050919050565b6108b580620003bc6000396000f3fe608060405234801561001057600080fd5b506004361061004c5760003560e01c8063111002aa146100515780638d9776721461006d578063b6cb58a51461009e578063bc9639b2146100bc575b600080fd5b61006b600480360381019061006691906104ef565b6100d8565b005b61008760048036038101906100829190610530565b610197565b6040516100959291906105b0565b60405180910390f35b6100a6610250565b6040516100b391906105e0565b60405180910390f35b6100d660048036038101906100d19190610530565b610256565b005b60008081546100e690610781565b91905081905550604051806040016040528082815260200160001515815250600160008054815260200190815260200160002060008201518160000190805190602001906101359291906103cf565b5060208201518160010160006101000a81548160ff0219169083151502179055509050507f8304eea71399999aba5c87c24c7fbc7cb6fce2f02b9b5983fda2636b86df8d0a6000548260405161018c929190610624565b60405180910390a150565b60016020528060005260406000206000915090508060000180546101ba9061071e565b80601f01602080910402602001604051908101604052809291908181526020018280546101e69061071e565b80156102335780601f1061020857610100808354040283529160200191610233565b820191906000526020600020905b81548152906001019060200180831161021657829003601f168201915b5050505050908060010160009054906101000a900460ff16905082565b60005481565b6000600160008381526020019081526020016000206040518060400160405290816000820180546102869061071e565b80601f01602080910402602001604051908101604052809291908181526020018280546102b29061071e565b80156102ff5780601f106102d4576101008083540402835291602001916102ff565b820191906000526020600020905b8154815290600101906020018083116102e257829003601f168201915b505050505081526020016001820160009054906101000a900460ff16151515158152505090508060200151158160200190151590811515815250508060016000848152602001908152602001600020600082015181600001908051906020019061036a9291906103cf565b5060208201518160010160006101000a81548160ff0219169083151502179055509050507f01d9ba3e72a1f5f08aa0aa326ff2ff44d2db29def801ad52d050fb5ea06d4c848282602001516040516103c39291906105fb565b60405180910390a15050565b8280546103db9061071e565b90600052602060002090601f0160209004810192826103fd5760008555610444565b82601f1061041657805160ff1916838001178555610444565b82800160010185558215610444579182015b82811115610443578251825591602001919060010190610428565b5b5090506104519190610455565b5090565b5b8082111561046e576000816000905550600101610456565b5090565b600061048561048084610679565b610654565b90508281526020810184848401111561049d57600080fd5b6104a88482856106dc565b509392505050565b600082601f8301126104c157600080fd5b81356104d1848260208601610472565b91505092915050565b6000813590506104e981610868565b92915050565b60006020828403121561050157600080fd5b600082013567ffffffffffffffff81111561051b57600080fd5b610527848285016104b0565b91505092915050565b60006020828403121561054257600080fd5b6000610550848285016104da565b91505092915050565b610562816106c6565b82525050565b6000610573826106aa565b61057d81856106b5565b935061058d8185602086016106eb565b61059681610857565b840191505092915050565b6105aa816106d2565b82525050565b600060408201905081810360008301526105ca8185610568565b90506105d96020830184610559565b9392505050565b60006020820190506105f560008301846105a1565b92915050565b600060408201905061061060008301856105a1565b61061d6020830184610559565b9392505050565b600060408201905061063960008301856105a1565b818103602083015261064b8184610568565b90509392505050565b600061065e61066f565b905061066a8282610750565b919050565b6000604051905090565b600067ffffffffffffffff82111561069457610693610828565b5b61069d82610857565b9050602081019050919050565b600081519050919050565b600082825260208201905092915050565b60008115159050919050565b6000819050919050565b82818337600083830152505050565b60005b838110156107095780820151818401526020810190506106ee565b83811115610718576000848401525b50505050565b6000600282049050600182168061073657607f821691505b6020821081141561074a576107496107f9565b5b50919050565b61075982610857565b810181811067ffffffffffffffff8211171561077857610777610828565b5b80604052505050565b600061078c826106d2565b91507fffffffffffffffffffffffffffffffffffffffffffffffffffffffffffffffff8214156107bf576107be6107ca565b5b600182019050919050565b7f4e487b7100000000000000000000000000000000000000000000000000000000600052601160045260246000fd5b7f4e487b7100000000000000000000000000000000000000000000000000000000600052602260045260246000fd5b7f4e487b7100000000000000000000000000000000000000000000000000000000600052604160045260246000fd5b6000601f19601f8301169050919050565b610871816106d2565b811461087c57600080fd5b5056fea26469706673582212205d27c1947f2f22b2e8c6dcbb548a684ea691a9defcafdb594d4579cbfd21cf3464736f6c63430008040033",
  "linkReferences": {},
  "deployedLinkReferences": {}
}